let block = {
  "hash": "84da0de24f1f70074596f9a9da145a6b7961860519923b67545d095cf8262f9a",
  "confirmations": 15417,
  "strippedsize": 2013,
  "size": 2767,
  "weight": 8632,
  "height": 2383207,
  "version": 536870932,
  "versionHex": "20000014",
  "merkleroot": "ffa16a0562317ef0b0de037028c6c88643e7d1c63c06cdfc068671bee39aa8df",
  "tx": [
    {
      "txid": "cc74d99240cfea5fcf5840fc757b6a87223aa4ccbe7a047da9e6bbe24da11cb4",
      "hash": "b8658bd613fc56526d18d26411d2c4cdaccff572c58e588a3d1d7556fcad85cc",
      "version": 2,
      "size": 259,
      "vsize": 232,
      "weight": 928,
      "locktime": 697731990,
      "vin": [
        {
          "ismweb": false,
          "coinbase": "03675d2404eb9792632f706f6f6c696e2e636f6d2ffabe6d6d98662c3ea52ef6b927a0a1fe473ec80207064167530c770212f03335d9bd72ff01000000000000005d42ae16522e0ce925b7b7237aec5f5805008601000000000000",
          "txinwitness": [
            "0000000000000000000000000000000000000000000000000000000000000000"
          ],
          "sequence": 4294967295
        }
      ],
      "vout": [
        {
          "ismweb": false,
          "value": 12.50064095,
          "n": 0,
          "scriptPubKey": {
            "asm": "OP_DUP OP_HASH160 354039ba9a6666f6b729a2570fb8b660e86f1422 OP_EQUALVERIFY OP_CHECKSIG",
            "hex": "76a914354039ba9a6666f6b729a2570fb8b660e86f142288ac",
            "reqSigs": 1,
            "type": "pubkeyhash",
            "addresses": [
              "LQ5X1r32bU3v2TgVxE9osb2YnCZNFY6ikm"
            ]
          }
        },
        {
          "ismweb": false,
          "value": 0,
          "n": 1,
          "scriptPubKey": {
            "asm": "OP_RETURN aa21a9ed7a7eb7b22241328a54a746bc08b4bf24fdc010bd43d726de9ef2df40b7389302",
            "hex": "6a24aa21a9ed7a7eb7b22241328a54a746bc08b4bf24fdc010bd43d726de9ef2df40b7389302",
            "type": "nulldata"
          }
        }
      ],
      "hex": "020000000001010000000000000000000000000000000000000000000000000000000000000000ffffffff5b03675d2404eb9792632f706f6f6c696e2e636f6d2ffabe6d6d98662c3ea52ef6b927a0a1fe473ec80207064167530c770212f03335d9bd72ff01000000000000005d42ae16522e0ce925b7b7237aec5f5805008601000000000000ffffffff02df76824a000000001976a914354039ba9a6666f6b729a2570fb8b660e86f142288ac0000000000000000266a24aa21a9ed7a7eb7b22241328a54a746bc08b4bf24fdc010bd43d726de9ef2df40b738930201200000000000000000000000000000000000000000000000000000000000000000968b9629"
    },
    {
      "txid": "1d01ef51eb5ffc89ca0cd97a76e62f51e4a0236bb8e196111f3327357c3220d2",
      "hash": "79d72827d448bd923bafb13157a6dc544c4e75e7b5fb1b019ec6d31a5c87bb92",
      "version": 2,
      "size": 216,
      "vsize": 134,
      "weight": 534,
      "locktime": 0,
      "vin": [
        {
          "ismweb": false,
          "txid": "94380782a5b1962e76c478f40e4d14552af479fd4539944eeb4265f56c1b16ae",
          "vout": 2,
          "scriptSig": {
            "asm": "0014a3652e00e1f730a46f56fb0d8ce19b48ece506d5",
            "hex": "160014a3652e00e1f730a46f56fb0d8ce19b48ece506d5"
          },
          "txinwitness": [
            "3045022100ab0ccbe7c72a7f19f0b50c3f2f9c5850b4a01cff826a2c0c9a8a1b24ff63ccb20220239ad74980b8d679cb382dc81bca11c5bed9943b82135a612dccb30f7ee5832c01",
            "033983dfedf22440537b348209c718f474642b13dec0ff8290a831e79e0e33a98d"
          ],
          "sequence": 4294967295
        }
      ],
      "vout": [
        {
          "ismweb": false,
          "value": 2.81783644,
          "n": 0,
          "scriptPubKey": {
            "asm": "OP_HASH160 3fd95fa4523273778f3b84661e8da8db9fbb53c2 OP_EQUAL",
            "hex": "a9143fd95fa4523273778f3b84661e8da8db9fbb53c287",
            "reqSigs": 1,
            "type": "scripthash",
            "addresses": [
              "MDimCu3RTwbJgUxMd5RSDCakKtkXz7ogmu"
            ]
          }
        }
      ],
      "hex": "02000000000101ae161b6cf56542eb4e943945fd79f42a55144d0ef478c4762e96b1a5820738940200000017160014a3652e00e1f730a46f56fb0d8ce19b48ece506d5ffffffff015cadcb100000000017a9143fd95fa4523273778f3b84661e8da8db9fbb53c28702483045022100ab0ccbe7c72a7f19f0b50c3f2f9c5850b4a01cff826a2c0c9a8a1b24ff63ccb20220239ad74980b8d679cb382dc81bca11c5bed9943b82135a612dccb30f7ee5832c0121033983dfedf22440537b348209c718f474642b13dec0ff8290a831e79e0e33a98d00000000"
    },
    {
      "txid": "e9f56c4c0f70cb8d05c8b85a787ec8982045a4de781b7012ff136da453ea1357",
      "hash": "e9f56c4c0f70cb8d05c8b85a787ec8982045a4de781b7012ff136da453ea1357",
      "version": 2,
      "size": 192,
      "vsize": 192,
      "weight": 768,
      "locktime": 2383205,
      "vin": [
        {
          "ismweb": false,
          "txid": "92b04f51299133a9f29ea2e2d6142ae2c24a9d529b7a9a27e083e556cedb84c8",
          "vout": 53,
          "scriptSig": {
            "asm": "3045022100c8f9806cdc9993062927bf7237c1bb88a55ae68177cab5a4f4d12248f13f84ce0220576d6712ab328a0404a0d1116f5e74bc0550f120a35f1811e62dfadadcf2d93c[ALL] 031284b1c376b62d5c53302712ce7797a80eb75d75610e4d21218241f84c84161f",
            "hex": "483045022100c8f9806cdc9993062927bf7237c1bb88a55ae68177cab5a4f4d12248f13f84ce0220576d6712ab328a0404a0d1116f5e74bc0550f120a35f1811e62dfadadcf2d93c0121031284b1c376b62d5c53302712ce7797a80eb75d75610e4d21218241f84c84161f"
          },
          "sequence": 4294967294
        }
      ],
      "vout": [
        {
          "ismweb": false,
          "value": 0.00209444,
          "n": 0,
          "scriptPubKey": {
            "asm": "OP_DUP OP_HASH160 f96665ca5258a8a6ba4541ea73dbdf5d66fe22fa OP_EQUALVERIFY OP_CHECKSIG",
            "hex": "76a914f96665ca5258a8a6ba4541ea73dbdf5d66fe22fa88ac",
            "reqSigs": 1,
            "type": "pubkeyhash",
            "addresses": [
              "LhxfBgyZrJixeEXmn8Xcx3eBj7bScvjCsi"
            ]
          }
        }
      ],
      "hex": "0200000001c884dbce56e583e0279a7a9b529d4ac2e22a14d6e2a29ef2a9339129514fb092350000006b483045022100c8f9806cdc9993062927bf7237c1bb88a55ae68177cab5a4f4d12248f13f84ce0220576d6712ab328a0404a0d1116f5e74bc0550f120a35f1811e62dfadadcf2d93c0121031284b1c376b62d5c53302712ce7797a80eb75d75610e4d21218241f84c84161ffeffffff0124320300000000001976a914f96665ca5258a8a6ba4541ea73dbdf5d66fe22fa88ac655d2400"
    },
    {
      "txid": "9c368e8e306de41af1a34f6b2b01f417f52db436a754bd07d2c7baef686a820c",
      "hash": "a6f56ad2a25ac4ace2f500d0e4ffeb427676f92700e4d850561c5f4a7edb6684",
      "version": 2,
      "size": 223,
      "vsize": 142,
      "weight": 565,
      "locktime": 2383205,
      "vin": [
        {
          "ismweb": false,
          "txid": "b8c427b60c72ee3694d4482ab5cc1fe88de5651a0564e5c766ec306f37a8d24e",
          "vout": 0,
          "scriptSig": {
            "asm": "",
            "hex": ""
          },
          "txinwitness": [
            "304402207760916fcee10af944831d3dd496d517974066223154d014344222ec2a2dd82c022037bd6986e85720fe9d57135ce233f9fca9a6770b9ea1e6135cdb3bd945b6d38b01",
            "03ba1034fa17a37654b6a318373d959c3adca0307a825b7afcd95516e8efa7ba3c"
          ],
          "sequence": 4294967294
        }
      ],
      "vout": [
        {
          "ismweb": false,
          "value": 0.13386619,
          "n": 0,
          "scriptPubKey": {
            "asm": "0 d715f23463391496f4efaeaa854e16702b90a4a6",
            "hex": "0014d715f23463391496f4efaeaa854e16702b90a4a6",
            "reqSigs": 1,
            "type": "witness_v0_keyhash",
            "addresses": [
              "ltc1q6u2lydrr8y2fda80464g2nskwq4epf9xmx47v4"
            ]
          }
        },
        {
          "ismweb": false,
          "value": 0.0287998,
          "n": 1,
          "scriptPubKey": {
            "asm": "OP_HASH160 9913e785936f4d5299cf2649c09656a4b521598f OP_EQUAL",
            "hex": "a9149913e785936f4d5299cf2649c09656a4b521598f87",
            "reqSigs": 1,
            "type": "scripthash",
            "addresses": [
              "MMrZTm65KnT1cZogcw4FTAjX9jaGfqDjUK"
            ]
          }
        }
      ],
      "hex": "020000000001014ed2a8376f30ec66c7e564051a65e58de81fccb52a48d49436ee720cb627c4b80000000000feffffff027b43cc0000000000160014d715f23463391496f4efaeaa854e16702b90a4a6ecf12b000000000017a9149913e785936f4d5299cf2649c09656a4b521598f870247304402207760916fcee10af944831d3dd496d517974066223154d014344222ec2a2dd82c022037bd6986e85720fe9d57135ce233f9fca9a6770b9ea1e6135cdb3bd945b6d38b012103ba1034fa17a37654b6a318373d959c3adca0307a825b7afcd95516e8efa7ba3c655d2400"
    },
    {
      "txid": "e132d27adbf6bae1ce50fbc150a624dfd8eceecc1965e1dfc6342c8c5037856b",
      "hash": "9b46d5b82529a48569dd97dd44c1fc78db7de90fd9eefd6bdbeaa71f15a6eb57",
      "version": 2,
      "size": 451,
      "vsize": 289,
      "weight": 1156,
      "locktime": 2383173,
      "vin": [
        {
          "ismweb": false,
          "txid": "5a0e646fbc3e998323da3f8d02cbc6cf98892c8f0857e8e99dd8da18ada4a9a1",
          "vout": 1,
          "scriptSig": {
            "asm": "001449431cbe717ad8b78f9be6d75d103d4352041327",
            "hex": "16001449431cbe717ad8b78f9be6d75d103d4352041327"
          },
          "txinwitness": [
            "304402201cc4ea8d3342605de21682475968b72b1464fd42b2e62d166665ea7d8dc0485402202f398fd7186715b08e0d02cfd73d8c9becc161664ff570b67e55217b75c5783601",
            "038fc2a45eb984899230d875659c855e49a5dca16f77c899d4bbdd553aaef8513a"
          ],
          "sequence": 4294967293
        },
        {
          "ismweb": false,
          "txid": "dfdb8f0be858f131e14bf84e7594d07e21e233f11be3f630938854ce2d94db71",
          "vout": 1,
          "scriptSig": {
            "asm": "0014bacc1548de1f3ee796c4f2b3e0d66b6fa72cf131",
            "hex": "160014bacc1548de1f3ee796c4f2b3e0d66b6fa72cf131"
          },
          "txinwitness": [
            "304402207a4078c19a2d7b4d21597b102f66873e99cc7754df124824bcb40be191fa930402205302885ed37d76ac9ea150d12843701f65fc8a95ff3f688a5f6856fc5107587001",
            "03da2f3f8bfc078e2c20922becd118af73d36d5ec3dc30cf668ce9f4d005537cde"
          ],
          "sequence": 4294967293
        }
      ],
      "vout": [
        {
          "ismweb": false,
          "value": 0.0102367,
          "n": 0,
          "scriptPubKey": {
            "asm": "0 b9ae03b74ab9d398d3871775243e0775e9ca0ad1",
            "hex": "0014b9ae03b74ab9d398d3871775243e0775e9ca0ad1",
            "reqSigs": 1,
            "type": "witness_v0_keyhash",
            "addresses": [
              "ltc1qhxhq8d62h8fe35u8za6jg0s8wh5u5zk3tg3ys9"
            ]
          }
        },
        {
          "ismweb": false,
          "value": 0.50142935,
          "n": 1,
          "scriptPubKey": {
            "asm": "OP_HASH160 b974c1b31acd7e0a32e1f1c550a63476e03d4498 OP_EQUAL",
            "hex": "a914b974c1b31acd7e0a32e1f1c550a63476e03d449887",
            "reqSigs": 1,
            "type": "scripthash",
            "addresses": [
              "MQom7K4v2DS5oCvZZspBjuWXR9WhvvphxA"
            ]
          }
        },
        {
          "ismweb": false,
          "value": 0.65849635,
          "n": 2,
          "scriptPubKey": {
            "asm": "OP_DUP OP_HASH160 585056ad1b9fa27dca1f588fd77dd9395a701f16 OP_EQUALVERIFY OP_CHECKSIG",
            "hex": "76a914585056ad1b9fa27dca1f588fd77dd9395a701f1688ac",
            "reqSigs": 1,
            "type": "pubkeyhash",
            "addresses": [
              "LTGuy7hsAZGgishffDFxw8qPjU257zsM1M"
            ]
          }
        }
      ],
      "hex": "02000000000102a1a9a4ad18dad89de9e857088f2c8998cfc6cb028d3fda2383993ebc6f640e5a010000001716001449431cbe717ad8b78f9be6d75d103d4352041327fdffffff71db942dce54889330f6e31bf133e2217ed094754ef84be131f158e80b8fdbdf0100000017160014bacc1548de1f3ee796c4f2b3e0d66b6fa72cf131fdffffff03b69e0f0000000000160014b9ae03b74ab9d398d3871775243e0775e9ca0ad1d71efd020000000017a914b974c1b31acd7e0a32e1f1c550a63476e03d44988723c9ec03000000001976a914585056ad1b9fa27dca1f588fd77dd9395a701f1688ac0247304402201cc4ea8d3342605de21682475968b72b1464fd42b2e62d166665ea7d8dc0485402202f398fd7186715b08e0d02cfd73d8c9becc161664ff570b67e55217b75c578360121038fc2a45eb984899230d875659c855e49a5dca16f77c899d4bbdd553aaef8513a0247304402207a4078c19a2d7b4d21597b102f66873e99cc7754df124824bcb40be191fa930402205302885ed37d76ac9ea150d12843701f65fc8a95ff3f688a5f6856fc51075870012103da2f3f8bfc078e2c20922becd118af73d36d5ec3dc30cf668ce9f4d005537cde455d2400"
    },
    {
      "txid": "b15f09c0353fe3cb455c2ddd4e29e3883f841787257a299c0b932f160e292690",
      "hash": "b15f09c0353fe3cb455c2ddd4e29e3883f841787257a299c0b932f160e292690",
      "version": 1,
      "size": 224,
      "vsize": 224,
      "weight": 896,
      "locktime": 0,
      "vin": [
        {
          "ismweb": false,
          "txid": "243e954738c383e026a9647e1c147b02a7c909b6ecacafd7ff55ed02514e6e95",
          "vout": 1,
          "scriptSig": {
            "asm": "3045022100bae947222d03314ed0a5466a61dc4ca3208efaf19b446cdfb1a0476c0673e15d02207b10f53576832a199ae6d0fd4ba0d84356ebdfb553c6f0ef95de34e99ef1b64c[ALL] 0303ef8b0f0543ad9976a3cb4367741f159c5c426ccbc0c9f6621a2bcb4a95b144",
            "hex": "483045022100bae947222d03314ed0a5466a61dc4ca3208efaf19b446cdfb1a0476c0673e15d02207b10f53576832a199ae6d0fd4ba0d84356ebdfb553c6f0ef95de34e99ef1b64c01210303ef8b0f0543ad9976a3cb4367741f159c5c426ccbc0c9f6621a2bcb4a95b144"
          },
          "sequence": 4294967295
        }
      ],
      "vout": [
        {
          "ismweb": false,
          "value": 1.91885677,
          "n": 0,
          "scriptPubKey": {
            "asm": "OP_HASH160 86fc0c355d95746c64d62dc430f682d10dfe3048 OP_EQUAL",
            "hex": "a91486fc0c355d95746c64d62dc430f682d10dfe304887",
            "reqSigs": 1,
            "type": "scripthash",
            "addresses": [
              "MLCtiiUegpMCorSuqnG9ZTEnHuiStLpNGG"
            ]
          }
        },
        {
          "ismweb": false,
          "value": 20.47854309,
          "n": 1,
          "scriptPubKey": {
            "asm": "OP_DUP OP_HASH160 fb6ce6947aac511280e316791097b1a58e12c077 OP_EQUALVERIFY OP_CHECKSIG",
            "hex": "76a914fb6ce6947aac511280e316791097b1a58e12c07788ac",
            "reqSigs": 1,
            "type": "pubkeyhash",
            "addresses": [
              "Li9NKv5WksxAjKsKL2YuRLrddKswiwBZZ8"
            ]
          }
        }
      ],
      "hex": "0100000001956e4e5102ed55ffd7afacecb609c9a7027b141c7e64a926e083c33847953e24010000006b483045022100bae947222d03314ed0a5466a61dc4ca3208efaf19b446cdfb1a0476c0673e15d02207b10f53576832a199ae6d0fd4ba0d84356ebdfb553c6f0ef95de34e99ef1b64c01210303ef8b0f0543ad9976a3cb4367741f159c5c426ccbc0c9f6621a2bcb4a95b144ffffffff026df16f0b0000000017a91486fc0c355d95746c64d62dc430f682d10dfe304887e5c60f7a000000001976a914fb6ce6947aac511280e316791097b1a58e12c07788ac00000000"
    },
    {
      "txid": "8604aaac4926f9b39df7f81d866916451affd30eadf712bd4574441066cde3c0",
      "hash": "3b39657c7d4d1ba52aa1ee15c250996508982573d39b7f5cd5f4f805b18ae570",
      "version": 1,
      "size": 222,
      "vsize": 141,
      "weight": 561,
      "locktime": 0,
      "vin": [
        {
          "ismweb": false,
          "txid": "c87b15097adae98d8912cccf020778dc9e21fa1f25c90bbf794563eb8436eb6c",
          "vout": 1,
          "scriptSig": {
            "asm": "",
            "hex": ""
          },
          "txinwitness": [
            "30440220337ee35efad8e4873b0aec5beb175ea9a3e97e881f53c05247dcb92ae7fc4435022070facca4b1a9b4474b03cf57e8340550d633620cb46cbecc5fc2ce97b2e02e4201",
            "029cebbd93a3b59b91861e31a0dd3ff7d898199ab7c3e365aaf353cfc7da2fdf9a"
          ],
          "sequence": 4294967293
        }
      ],
      "vout": [
        {
          "ismweb": false,
          "value": 0.02,
          "n": 0,
          "scriptPubKey": {
            "asm": "0 dc3173166d468c721eca903b9ddb77493da2752c",
            "hex": "0014dc3173166d468c721eca903b9ddb77493da2752c",
            "reqSigs": 1,
            "type": "witness_v0_keyhash",
            "addresses": [
              "ltc1qmschx9ndg6x8y8k2jqaemkmhfy76yafvhczqcc"
            ]
          }
        },
        {
          "ismweb": false,
          "value": 0.00924984,
          "n": 1,
          "scriptPubKey": {
            "asm": "0 2d255cb906d4c2aae2a2b16970df1d6567606e4a",
            "hex": "00142d255cb906d4c2aae2a2b16970df1d6567606e4a",
            "reqSigs": 1,
            "type": "witness_v0_keyhash",
            "addresses": [
              "ltc1q95j4ewgx6np24c4zk95hphcav4nkqmj2k0shs2"
            ]
          }
        }
      ],
      "hex": "010000000001016ceb3684eb634579bf0bc9251ffa219edc780702cfcc12898de9da7a09157bc80100000000fdffffff0280841e0000000000160014dc3173166d468c721eca903b9ddb77493da2752c381d0e00000000001600142d255cb906d4c2aae2a2b16970df1d6567606e4a024730440220337ee35efad8e4873b0aec5beb175ea9a3e97e881f53c05247dcb92ae7fc4435022070facca4b1a9b4474b03cf57e8340550d633620cb46cbecc5fc2ce97b2e02e420121029cebbd93a3b59b91861e31a0dd3ff7d898199ab7c3e365aaf353cfc7da2fdf9a00000000"
    },
    {
      "txid": "41ab79465ffe5dbb023aa215637638adf58d627486d3bbdf3f8350832a17bb36",
      "hash": "41ab79465ffe5dbb023aa215637638adf58d627486d3bbdf3f8350832a17bb36",
      "version": 1,
      "size": 631,
      "vsize": 631,
      "weight": 2524,
      "locktime": 0,
      "vin": [
        {
          "ismweb": false,
          "txid": "65413362d2dc2cd2e10cd76870a870f2cd92111ee9bcdc5edba526823e5646a6",
          "vout": 2575,
          "scriptSig": {
            "asm": "0 3045022100d95eaf2a8187516ef91462b6d95bb2b1e13e870f503672d43bebfc0aabdead5602202f695570eabd80cefa36a84c951719016018c311bc952c8b08053f8ff78d8bc5[ALL] 304402200dea8a0161fe9e50e5aac79ae72da93efcb9c5fb7375982cb445351e652a575702200d1b2a784df2c6d0cd8c1ffc9aa7d274e2453312f7bc49d0d07fc523977525aa[ALL] 5221021bd0ea33fb9ce7e21230a60fc63f40fdcbd2fe057dbd49951aac6998b421c26e2102df825b0201763b2c977634f09b07b75861f217ee266c8688808c38a83236f5c22102103457bf7ffbb923886e98ac7dd232a93992d8a946222b698d4ab0dfc9bc071753ae",
            "hex": "00483045022100d95eaf2a8187516ef91462b6d95bb2b1e13e870f503672d43bebfc0aabdead5602202f695570eabd80cefa36a84c951719016018c311bc952c8b08053f8ff78d8bc50147304402200dea8a0161fe9e50e5aac79ae72da93efcb9c5fb7375982cb445351e652a575702200d1b2a784df2c6d0cd8c1ffc9aa7d274e2453312f7bc49d0d07fc523977525aa014c695221021bd0ea33fb9ce7e21230a60fc63f40fdcbd2fe057dbd49951aac6998b421c26e2102df825b0201763b2c977634f09b07b75861f217ee266c8688808c38a83236f5c22102103457bf7ffbb923886e98ac7dd232a93992d8a946222b698d4ab0dfc9bc071753ae"
          },
          "sequence": 4294967295
        },
        {
          "ismweb": false,
          "txid": "92b04f51299133a9f29ea2e2d6142ae2c24a9d529b7a9a27e083e556cedb84c8",
          "vout": 412,
          "scriptSig": {
            "asm": "0 304402202c0c0bf9b4ec6d3066f3055050d469f19799afb3826b28510765ab5b5ca5d58302204e506db3980316971604f8eb1fd3b53c64549571f45213696e80d4ff839c2024[ALL] 3044022019a3e3dfdf8691c5345d6e21fa6c34dcb73ab546acfeb8013c205c88cee6b716022033d627c54b0b4f5c86e4f47faadf1af70b128ddc850fa9110019f383e121b175[ALL] 5221021bd0ea33fb9ce7e21230a60fc63f40fdcbd2fe057dbd49951aac6998b421c26e2102df825b0201763b2c977634f09b07b75861f217ee266c8688808c38a83236f5c22102103457bf7ffbb923886e98ac7dd232a93992d8a946222b698d4ab0dfc9bc071753ae",
            "hex": "0047304402202c0c0bf9b4ec6d3066f3055050d469f19799afb3826b28510765ab5b5ca5d58302204e506db3980316971604f8eb1fd3b53c64549571f45213696e80d4ff839c202401473044022019a3e3dfdf8691c5345d6e21fa6c34dcb73ab546acfeb8013c205c88cee6b716022033d627c54b0b4f5c86e4f47faadf1af70b128ddc850fa9110019f383e121b175014c695221021bd0ea33fb9ce7e21230a60fc63f40fdcbd2fe057dbd49951aac6998b421c26e2102df825b0201763b2c977634f09b07b75861f217ee266c8688808c38a83236f5c22102103457bf7ffbb923886e98ac7dd232a93992d8a946222b698d4ab0dfc9bc071753ae"
          },
          "sequence": 4294967295
        }
      ],
      "vout": [
        {
          "ismweb": false,
          "value": 0.12723722,
          "n": 0,
          "scriptPubKey": {
            "asm": "OP_HASH160 8b5b26127e132bf460aa6e2812e52727965a1b9c OP_EQUAL",
            "hex": "a9148b5b26127e132bf460aa6e2812e52727965a1b9c87",
            "reqSigs": 1,
            "type": "scripthash",
            "addresses": [
              "MLc1MDduz8VyGdjjo3i5M46Z9RXhy624Q2"
            ]
          }
        }
      ],
      "hex": "0100000002a646563e8226a5db5edcbce91e1192cdf270a87068d70ce1d22cdcd2623341650f0a0000fdfd0000483045022100d95eaf2a8187516ef91462b6d95bb2b1e13e870f503672d43bebfc0aabdead5602202f695570eabd80cefa36a84c951719016018c311bc952c8b08053f8ff78d8bc50147304402200dea8a0161fe9e50e5aac79ae72da93efcb9c5fb7375982cb445351e652a575702200d1b2a784df2c6d0cd8c1ffc9aa7d274e2453312f7bc49d0d07fc523977525aa014c695221021bd0ea33fb9ce7e21230a60fc63f40fdcbd2fe057dbd49951aac6998b421c26e2102df825b0201763b2c977634f09b07b75861f217ee266c8688808c38a83236f5c22102103457bf7ffbb923886e98ac7dd232a93992d8a946222b698d4ab0dfc9bc071753aeffffffffc884dbce56e583e0279a7a9b529d4ac2e22a14d6e2a29ef2a9339129514fb0929c010000fc0047304402202c0c0bf9b4ec6d3066f3055050d469f19799afb3826b28510765ab5b5ca5d58302204e506db3980316971604f8eb1fd3b53c64549571f45213696e80d4ff839c202401473044022019a3e3dfdf8691c5345d6e21fa6c34dcb73ab546acfeb8013c205c88cee6b716022033d627c54b0b4f5c86e4f47faadf1af70b128ddc850fa9110019f383e121b175014c695221021bd0ea33fb9ce7e21230a60fc63f40fdcbd2fe057dbd49951aac6998b421c26e2102df825b0201763b2c977634f09b07b75861f217ee266c8688808c38a83236f5c22102103457bf7ffbb923886e98ac7dd232a93992d8a946222b698d4ab0dfc9bc071753aeffffffff010a26c2000000000017a9148b5b26127e132bf460aa6e2812e52727965a1b9c8700000000"
    },
    {
      "txid": "62d73befab5f48db9841aea938e57c8054dfdc284d6a60fc7d3363662aa078e6",
      "hash": "62d73befab5f48db9841aea938e57c8054dfdc284d6a60fc7d3363662aa078e6",
      "version": 2,
      "size": 97,
      "vsize": 94,
      "weight": 376,
      "locktime": 0,
      "vin": [
        {
          "ismweb": false,
          "txid": "7c6751eb8c83391975d815342510a9950670b6cf694cd7f5feda08222c44cb87",
          "vout": 0,
          "scriptSig": {
            "asm": "",
            "hex": ""
          },
          "sequence": 4294967295
        }
      ],
      "vout": [
        {
          "ismweb": false,
          "value": 7931.99220526,
          "n": 0,
          "scriptPubKey": {
            "asm": "8 a8eaca52de7fd7b7db2c72d49f0c88edde72eb1635ef321710755560f68c6141",
            "hex": "5820a8eaca52de7fd7b7db2c72d49f0c88edde72eb1635ef321710755560f68c6141",
            "type": "witness_mweb_hogaddr"
          }
        }
      ],
      "hex": "0200000000080187cb442c2208dafef5d74c69cfb6700695a910253415d8751939838ceb51677c0000000000ffffffff012e975baeb8000000225820a8eaca52de7fd7b7db2c72d49f0c88edde72eb1635ef321710755560f68c61410000000000"
    }
  ],
  "time": 1670551531,
  "mediantime": 1670550709,
  "nonce": 2533488342,
  "bits": "1a00d3d8",
  "difficulty": 20273913.01371884,
  "chainwork": "0000000000000000000000000000000000000000000009cb289a8996086666e0",
  "nTx": 9,
  "mweb": {
    "hash": "a8eaca52de7fd7b7db2c72d49f0c88edde72eb1635ef321710755560f68c6141",
    "height": 2383207,
    "kernel_offset": "e568df78156f659cb9411573b02f857f48361b04fb87ee6e01fc4d227ee5d3ce",
    "stealth_offset": "0000000000000000000000000000000000000000000000000000000000000000",
    "num_kernels": 0,
    "num_txos": 12555,
    "kernel_root": "0000000000000000000000000000000000000000000000000000000000000000",
    "output_root": "f7badc2f1c0ebc498733c7817372d4fd6d339341bdb9416822c0074544856991",
    "leaf_root": "9a23c46eecacb022e6af3dc4d08b9fa86ef7459b2a00e93f79a23c8e54f2d718",
    "inputs": [],
    "outputs": [],
    "kernels": []
  },
  "previousblockhash": "7b3479a720700cbff29abf0da5d14842dcae9ac18c0f9942504af07f2b8910b9",
  "nextblockhash": "d01b594f0540457648f21cfc6ae1e65bc04324d55e551deeaa276da18993ed4b"
};
