let block = {
  "hash": "0e6ab03c6ffc04a9bd9dc85a3e216a09f8d42b6f0bf0ce009c47c2c1347e11c2",
  "confirmations": 15416,
  "strippedsize": 1380,
  "size": 1918,
  "weight": 5884,
  "height": 2383209,
  "version": 536870912,
  "versionHex": "20000000",
  "merkleroot": "f28e248e70218d1e994a6d2c96ea06028ac8de07e33442ab95f41ea10e9f9dc9",
  "tx": [
    {
      "txid": "2b3f140c330a4367ba48bda85543171d40bb7f825fc028b2da1e751e952a5ac9",
      "hash": "3f035c824d2819a0ae49c8540aa7c7dd635e87bb429c20fc5faae61ea9cd1ce9",
      "version": 1,
      "size": 236,
      "vsize": 209,
      "weight": 836,
      "locktime": 0,
      "vin": [
        {
          "ismweb": false,
          "coinbase": "03695d2404639298d92cfabe6d6d1e23af416843a2d70d14e4284862000316492776d9762b1c4c92d945c8891f4f4000000000000000042f4c502f082300026d1a000000",
          "txinwitness": [
            "0000000000000000000000000000000000000000000000000000000000000000"
          ],
          "sequence": 4294967295
        }
      ],
      "vout": [
        {
          "ismweb": false,
          "value": 12.50026312,
          "n": 0,
          "scriptPubKey": {
            "asm": "OP_DUP OP_HASH160 57757ed9e2fa7d86636bdd8066078e22cfa19244 OP_EQUALVERIFY OP_CHECKSIG",
            "hex": "76a91457757ed9e2fa7d86636bdd8066078e22cfa1924488ac",
            "reqSigs": 1,
            "type": "pubkeyhash",
            "addresses": [
              "LTCPodha2LAxSyBGsGfkWcmKDEB8cWrqLU"
            ]
          }
        },
        {
          "ismweb": false,
          "value": 0,
          "n": 1,
          "scriptPubKey": {
            "asm": "OP_RETURN aa21a9edb30c08bcb1da7d33ef9feb9282b0ba792b4d69fd2f33c9fbff2567725499aa8c",
            "hex": "6a24aa21a9edb30c08bcb1da7d33ef9feb9282b0ba792b4d69fd2f33c9fbff2567725499aa8c",
            "type": "nulldata"
          }
        }
      ],
      "hex": "010000000001010000000000000000000000000000000000000000000000000000000000000000ffffffff4403695d2404639298d92cfabe6d6d1e23af416843a2d70d14e4284862000316492776d9762b1c4c92d945c8891f4f4000000000000000042f4c502f082300026d1a000000ffffffff0248e3814a000000001976a91457757ed9e2fa7d86636bdd8066078e22cfa1924488ac0000000000000000266a24aa21a9edb30c08bcb1da7d33ef9feb9282b0ba792b4d69fd2f33c9fbff2567725499aa8c0120000000000000000000000000000000000000000000000000000000000000000000000000"
    },
    {
      "txid": "237f0d5ef5a58ed285623f67bf4d1ebcc520c5370fac0cfb10c4e00753f96aeb",
      "hash": "237f0d5ef5a58ed285623f67bf4d1ebcc520c5370fac0cfb10c4e00753f96aeb",
      "version": 2,
      "size": 225,
      "vsize": 225,
      "weight": 900,
      "locktime": 0,
      "vin": [
        {
          "ismweb": false,
          "txid": "55d3705f0a081fde9244a8197345806ef86cdb8ebeddd08c023f892e7c9d5b07",
          "vout": 2,
          "scriptSig": {
            "asm": "304402207d4d68deba8a89f7e0021f11221dfdd5ce5736a0678f8367f9d162b4e8a2095f022041cfbd8fbe9bcefa8fffc42eabbddce0e57f8afab1fd043bfa96544bf5865d78[ALL] 03ea8a24217fe50a3d9a77fb5c53dc683125844023bff46a1ff25e27293620e7e2",
            "hex": "47304402207d4d68deba8a89f7e0021f11221dfdd5ce5736a0678f8367f9d162b4e8a2095f022041cfbd8fbe9bcefa8fffc42eabbddce0e57f8afab1fd043bfa96544bf5865d78012103ea8a24217fe50a3d9a77fb5c53dc683125844023bff46a1ff25e27293620e7e2"
          },
          "sequence": 4294967295
        }
      ],
      "vout": [
        {
          "ismweb": false,
          "value": 0.65988,
          "n": 0,
          "scriptPubKey": {
            "asm": "OP_DUP OP_HASH160 ddd88fb3dec24398d698bd7fe09fecba3f7da048 OP_EQUALVERIFY OP_CHECKSIG",
            "hex": "76a914ddd88fb3dec24398d698bd7fe09fecba3f7da04888ac",
            "reqSigs": 1,
            "type": "pubkeyhash",
            "addresses": [
              "LfSy2Z2w4qMSkeEeY3ZLtmecXo2anAJJML"
            ]
          }
        },
        {
          "ismweb": false,
          "value": 13.01449678,
          "n": 1,
          "scriptPubKey": {
            "asm": "OP_DUP OP_HASH160 f79b1495267fb1d20687c067f8ce458904997a80 OP_EQUALVERIFY OP_CHECKSIG",
            "hex": "76a914f79b1495267fb1d20687c067f8ce458904997a8088ac",
            "reqSigs": 1,
            "type": "pubkeyhash",
            "addresses": [
              "LhoAwmdUTwu39Y9zutEr2frtYa1xrsGiui"
            ]
          }
        }
      ],
      "hex": "0200000001075b9d7c2e893f028cd0ddbe8edb6cf86e80457319a84492de1f080a5f70d355020000006a47304402207d4d68deba8a89f7e0021f11221dfdd5ce5736a0678f8367f9d162b4e8a2095f022041cfbd8fbe9bcefa8fffc42eabbddce0e57f8afab1fd043bfa96544bf5865d78012103ea8a24217fe50a3d9a77fb5c53dc683125844023bff46a1ff25e27293620e7e2ffffffff02a0e5ee03000000001976a914ddd88fb3dec24398d698bd7fe09fecba3f7da04888acce8b924d000000001976a914f79b1495267fb1d20687c067f8ce458904997a8088ac00000000"
    },
    {
      "txid": "1e447efc190e81933c59652f8bfd3ee9a09405dba4a7480f5f27cec7fa954b88",
      "hash": "1e447efc190e81933c59652f8bfd3ee9a09405dba4a7480f5f27cec7fa954b88",
      "version": 1,
      "size": 190,
      "vsize": 190,
      "weight": 760,
      "locktime": 0,
      "vin": [
        {
          "ismweb": false,
          "txid": "2eee2320378612d8a483cb72dcc580c946912fc28249661d493c665234c7be2a",
          "vout": 0,
          "scriptSig": {
            "asm": "3045022100b1497692eb7e84f73fd6a19dd7f6084c3c99b5ae2ab6f430172c0bffd679b8c402200c486d72f04fc25d249f8a98c8fc32f972186b720626bc48667aa7f58c799f19[ALL] 0320b9a2e64217ad5ef999daa78a078872b753a9e8a391a0b2c290aa69f1b46453",
            "hex": "483045022100b1497692eb7e84f73fd6a19dd7f6084c3c99b5ae2ab6f430172c0bffd679b8c402200c486d72f04fc25d249f8a98c8fc32f972186b720626bc48667aa7f58c799f1901210320b9a2e64217ad5ef999daa78a078872b753a9e8a391a0b2c290aa69f1b46453"
          },
          "sequence": 4294967295
        }
      ],
      "vout": [
        {
          "ismweb": false,
          "value": 0.14206018,
          "n": 0,
          "scriptPubKey": {
            "asm": "OP_HASH160 dd6178d74ec33f6d90f0cf4205122d10e5a38044 OP_EQUAL",
            "hex": "a914dd6178d74ec33f6d90f0cf4205122d10e5a3804487",
            "reqSigs": 1,
            "type": "scripthash",
            "addresses": [
              "MU5iLJNz5m4MAEtmjz5nbdJicJkdiHWnQR"
            ]
          }
        }
      ],
      "hex": "01000000012abec73452663c491d664982c22f9146c980c5dc72cb83a4d81286372023ee2e000000006b483045022100b1497692eb7e84f73fd6a19dd7f6084c3c99b5ae2ab6f430172c0bffd679b8c402200c486d72f04fc25d249f8a98c8fc32f972186b720626bc48667aa7f58c799f1901210320b9a2e64217ad5ef999daa78a078872b753a9e8a391a0b2c290aa69f1b46453ffffffff0142c4d8000000000017a914dd6178d74ec33f6d90f0cf4205122d10e5a380448700000000"
    },
    {
      "txid": "1ea32ada0ac03ede6df9cbb22b00c620e618a61c66b166996b4861a716cb6317",
      "hash": "1ea32ada0ac03ede6df9cbb22b00c620e618a61c66b166996b4861a716cb6317",
      "version": 1,
      "size": 224,
      "vsize": 224,
      "weight": 896,
      "locktime": 0,
      "vin": [
        {
          "ismweb": false,
          "txid": "96043f85ea81958d96c55a7cf9838887bc6457b5711d69b164022aaa252cf862",
          "vout": 0,
          "scriptSig": {
            "asm": "30450221009b5e2f1350688f0506dd05f52b9253f4bc05f4d00bc357ab9cd0b73bfe42f59402205f56518bf187b41829ac2b0f58720c24c6097591ec431037faa341a6171f727d[ALL] 03149c06fa01bfd9a786a73a9d7c233248d49cd021fa3520fb5d1706dc44bced19",
            "hex": "4830450221009b5e2f1350688f0506dd05f52b9253f4bc05f4d00bc357ab9cd0b73bfe42f59402205f56518bf187b41829ac2b0f58720c24c6097591ec431037faa341a6171f727d012103149c06fa01bfd9a786a73a9d7c233248d49cd021fa3520fb5d1706dc44bced19"
          },
          "sequence": 4294967295
        }
      ],
      "vout": [
        {
          "ismweb": false,
          "value": 0.138458,
          "n": 0,
          "scriptPubKey": {
            "asm": "OP_HASH160 a9df88e7df04d3e931ededaa261f6240c01d2b6b OP_EQUAL",
            "hex": "a914a9df88e7df04d3e931ededaa261f6240c01d2b6b87",
            "reqSigs": 1,
            "type": "scripthash",
            "addresses": [
              "MPPNDKSzmYEeyKZPMtnYuKdx7M84EGtcSe"
            ]
          }
        },
        {
          "ismweb": false,
          "value": 0.03122929,
          "n": 1,
          "scriptPubKey": {
            "asm": "OP_DUP OP_HASH160 a29947992f9c9219d8eabf95a41fa9d5806036d8 OP_EQUALVERIFY OP_CHECKSIG",
            "hex": "76a914a29947992f9c9219d8eabf95a41fa9d5806036d888ac",
            "reqSigs": 1,
            "type": "pubkeyhash",
            "addresses": [
              "La3hMMAbkrmbyzFTk898DrhxfbPxkPXeRk"
            ]
          }
        }
      ],
      "hex": "010000000162f82c25aa2a0264b1691d71b55764bc878883f97c5ac5968d9581ea853f0496000000006b4830450221009b5e2f1350688f0506dd05f52b9253f4bc05f4d00bc357ab9cd0b73bfe42f59402205f56518bf187b41829ac2b0f58720c24c6097591ec431037faa341a6171f727d012103149c06fa01bfd9a786a73a9d7c233248d49cd021fa3520fb5d1706dc44bced19ffffffff022845d3000000000017a914a9df88e7df04d3e931ededaa261f6240c01d2b6b87f1a62f00000000001976a914a29947992f9c9219d8eabf95a41fa9d5806036d888ac00000000"
    },
    {
      "txid": "efae3cce0283dcb9ed698bbce59e3545a2086d8772dc23bf19520ac58a451f4e",
      "hash": "a21fbd9a88562c395f3d1fa72e9c8ffab55b597fc39f1e55efa73cc8fa0a51b3",
      "version": 1,
      "size": 222,
      "vsize": 141,
      "weight": 561,
      "locktime": 0,
      "vin": [
        {
          "ismweb": false,
          "txid": "4ee6e92269dc113e347d7a42817b8d636b979285d26610ade1039c64889eabc5",
          "vout": 1,
          "scriptSig": {
            "asm": "",
            "hex": ""
          },
          "txinwitness": [
            "304402200b7d08ec9cdc271ee8b6e95bbd12e86b49c4332c47b6712382abe696d5054b73022011e76c49602db80dc7435aae769e92f1af60965b89c980d5be11ae17b13b319b01",
            "03b69eeba2d46d1ec61742e9b64d28c13baaeab18de0c7d162099d5e3d308c8014"
          ],
          "sequence": 4294967287
        }
      ],
      "vout": [
        {
          "ismweb": false,
          "value": 0.00163365,
          "n": 0,
          "scriptPubKey": {
            "asm": "0 183f6003be696c1619b80b744c4ba7e6470b38d6",
            "hex": "0014183f6003be696c1619b80b744c4ba7e6470b38d6",
            "reqSigs": 1,
            "type": "witness_v0_keyhash",
            "addresses": [
              "ltc1qrqlkqqa7d9kpvxdcpd6ycja8uerskwxkhfy500"
            ]
          }
        },
        {
          "ismweb": false,
          "value": 0.00294297,
          "n": 1,
          "scriptPubKey": {
            "asm": "0 e604ca4e4abe31f7dbd349a5e127973cc986d166",
            "hex": "0014e604ca4e4abe31f7dbd349a5e127973cc986d166",
            "reqSigs": 1,
            "type": "witness_v0_keyhash",
            "addresses": [
              "ltc1quczv5nj2hccl0k7nfxj7zfuh8nycd5txz32mpf"
            ]
          }
        }
      ],
      "hex": "01000000000101c5ab9e88649c03e1ad1066d28592976b638d7b81427a7d343e11dc6922e9e64e0100000000f7ffffff02257e020000000000160014183f6003be696c1619b80b744c4ba7e6470b38d6997d040000000000160014e604ca4e4abe31f7dbd349a5e127973cc986d1660247304402200b7d08ec9cdc271ee8b6e95bbd12e86b49c4332c47b6712382abe696d5054b73022011e76c49602db80dc7435aae769e92f1af60965b89c980d5be11ae17b13b319b012103b69eeba2d46d1ec61742e9b64d28c13baaeab18de0c7d162099d5e3d308c801400000000"
    },
    {
      "txid": "12c31af07ceb2db08e3493b3022b399d660ca06844a9aab56647d534933b1017",
      "hash": "138f3d0c62d682bd38e11501f161f8d744ac21245f091f19758cfc62e69496ef",
      "version": 1,
      "size": 225,
      "vsize": 144,
      "weight": 573,
      "locktime": 0,
      "vin": [
        {
          "ismweb": false,
          "txid": "24f0fb886918de06ff08eb955d3de2e6be9eb06e16834a1e8ac88de4a24ea587",
          "vout": 1,
          "scriptSig": {
            "asm": "",
            "hex": ""
          },
          "txinwitness": [
            "3044022000fac5293ae6102c1c3e6d8bef4a0a5758b816b15f8ef08bd6f436fc422580be02205f014b96e544ed0531cc202697224cf0665167a4696bf2f72da252279f558c2401",
            "0298f7537147c2d2ef4c583c072dd20cd564c55db6100d11fd0143fbfb8f753b0e"
          ],
          "sequence": 4294967295
        }
      ],
      "vout": [
        {
          "ismweb": false,
          "value": 0.82778282,
          "n": 0,
          "scriptPubKey": {
            "asm": "OP_DUP OP_HASH160 13fe034a82ab36103c60cce54ef827a01885f95f OP_EQUALVERIFY OP_CHECKSIG",
            "hex": "76a91413fe034a82ab36103c60cce54ef827a01885f95f88ac",
            "reqSigs": 1,
            "type": "pubkeyhash",
            "addresses": [
              "LM3fPypNFaRtTZdEgn8UU6MzFb1qECPcnu"
            ]
          }
        },
        {
          "ismweb": false,
          "value": 6.04410068,
          "n": 1,
          "scriptPubKey": {
            "asm": "0 6034e988a5d16e19bb7f99f5a0a9b074d97e543f",
            "hex": "00146034e988a5d16e19bb7f99f5a0a9b074d97e543f",
            "reqSigs": 1,
            "type": "witness_v0_keyhash",
            "addresses": [
              "ltc1qvq6wnz9969hpnwmln866p2dswnvhu4pl90h2ym"
            ]
          }
        }
      ],
      "hex": "0100000000010187a54ea2e48dc88a1e4a83166eb09ebee6e23d5d95eb08ff06de186988fbf0240100000000ffffffff02aa18ef04000000001976a91413fe034a82ab36103c60cce54ef827a01885f95f88acd4900624000000001600146034e988a5d16e19bb7f99f5a0a9b074d97e543f02473044022000fac5293ae6102c1c3e6d8bef4a0a5758b816b15f8ef08bd6f436fc422580be02205f014b96e544ed0531cc202697224cf0665167a4696bf2f72da252279f558c2401210298f7537147c2d2ef4c583c072dd20cd564c55db6100d11fd0143fbfb8f753b0e00000000"
    },
    {
      "txid": "1187a66260e18bdc1185f805964fc9b53c584e2b328616c25ea441a56ec4fcbc",
      "hash": "de4f709d17b330fb7debc313a02983b0833ea849f967fb4c1206224e4a4d3d0f",
      "version": 1,
      "size": 247,
      "vsize": 165,
      "weight": 658,
      "locktime": 0,
      "vin": [
        {
          "ismweb": false,
          "txid": "f50005b9e09c142622b6b525e115bb6c59718222478234e936dc37e9ea8b24b6",
          "vout": 0,
          "scriptSig": {
            "asm": "00145049bc2bab65a89e83b3b09846812a15baf13d53",
            "hex": "1600145049bc2bab65a89e83b3b09846812a15baf13d53"
          },
          "txinwitness": [
            "3045022100e20fc265c5a05e0f763058f28a1c35ca0c370122469932f10f9f089a71ba226c0220555eec8bcc45cb060330a72c6c6a2e0d0b5f43f698956a0b3dfe6d9977e3924d01",
            "03274c18f5f18543106fde63aaf355d138a590769fa6183b6bded5e67c1d8835ee"
          ],
          "sequence": 4294967295
        }
      ],
      "vout": [
        {
          "ismweb": false,
          "value": 3.90574978,
          "n": 0,
          "scriptPubKey": {
            "asm": "OP_HASH160 40f18624eb4dc2c3734886e8b4e73944bff0e4d0 OP_EQUAL",
            "hex": "a91440f18624eb4dc2c3734886e8b4e73944bff0e4d087",
            "reqSigs": 1,
            "type": "scripthash",
            "addresses": [
              "MDpYp682EJWL4sMvdDztEEDfgJh16Fvyv4"
            ]
          }
        },
        {
          "ismweb": false,
          "value": 2.81179763,
          "n": 1,
          "scriptPubKey": {
            "asm": "0 3c02f691e930c9faa1a2e585d5650e6a3e6753b2",
            "hex": "00143c02f691e930c9faa1a2e585d5650e6a3e6753b2",
            "reqSigs": 1,
            "type": "witness_v0_keyhash",
            "addresses": [
              "ltc1q8sp0dy0fxryl4gdzukza2egwdglxw5aj8emw6c"
            ]
          }
        }
      ],
      "hex": "01000000000101b6248beae937dc36e9348247228271596cbb15e125b5b62226149ce0b90500f500000000171600145049bc2bab65a89e83b3b09846812a15baf13d53ffffffff0282b347170000000017a91440f18624eb4dc2c3734886e8b4e73944bff0e4d0877376c210000000001600143c02f691e930c9faa1a2e585d5650e6a3e6753b202483045022100e20fc265c5a05e0f763058f28a1c35ca0c370122469932f10f9f089a71ba226c0220555eec8bcc45cb060330a72c6c6a2e0d0b5f43f698956a0b3dfe6d9977e3924d012103274c18f5f18543106fde63aaf355d138a590769fa6183b6bded5e67c1d8835ee00000000"
    },
    {
      "txid": "fbcbab14f31bc094410e300b0e7be55c415a18bdee5a5285df52b17acda245df",
      "hash": "fbcbab14f31bc094410e300b0e7be55c415a18bdee5a5285df52b17acda245df",
      "version": 2,
      "size": 97,
      "vsize": 94,
      "weight": 376,
      "locktime": 0,
      "vin": [
        {
          "ismweb": false,
          "txid": "95dac91ec1d00602c853d3f496c4847eea215d034ec2a4803ecf406cadf15a99",
          "vout": 0,
          "scriptSig": {
            "asm": "",
            "hex": ""
          },
          "sequence": 4294967295
        }
      ],
      "vout": [
        {
          "ismweb": false,
          "value": 7931.99220526,
          "n": 0,
          "scriptPubKey": {
            "asm": "8 fc7da6da9aeb7186c6fcdd7d9b770de8b93f8116820e6441f370b3c92b29ca53",
            "hex": "5820fc7da6da9aeb7186c6fcdd7d9b770de8b93f8116820e6441f370b3c92b29ca53",
            "type": "witness_mweb_hogaddr"
          }
        }
      ],
      "hex": "02000000000801995af1ad6c40cf3e80a4c24e035d21ea7e84c496f4d353c80206d0c11ec9da950000000000ffffffff012e975baeb8000000225820fc7da6da9aeb7186c6fcdd7d9b770de8b93f8116820e6441f370b3c92b29ca530000000000"
    }
  ],
  "time": 1670551769,
  "mediantime": 1670550767,
  "nonce": 3451752041,
  "bits": "1a00d3d8",
  "difficulty": 20273913.01371884,
  "chainwork": "0000000000000000000000000000000000000000000009cb2b0541f2c7c94e10",
  "nTx": 8,
  "mweb": {
    "hash": "fc7da6da9aeb7186c6fcdd7d9b770de8b93f8116820e6441f370b3c92b29ca53",
    "height": 2383209,
    "kernel_offset": "e568df78156f659cb9411573b02f857f48361b04fb87ee6e01fc4d227ee5d3ce",
    "stealth_offset": "0000000000000000000000000000000000000000000000000000000000000000",
    "num_kernels": 0,
    "num_txos": 12555,
    "kernel_root": "0000000000000000000000000000000000000000000000000000000000000000",
    "output_root": "f7badc2f1c0ebc498733c7817372d4fd6d339341bdb9416822c0074544856991",
    "leaf_root": "9a23c46eecacb022e6af3dc4d08b9fa86ef7459b2a00e93f79a23c8e54f2d718",
    "inputs": [],
    "outputs": [],
    "kernels": []
  },
  "previousblockhash": "d01b594f0540457648f21cfc6ae1e65bc04324d55e551deeaa276da18993ed4b",
  "nextblockhash": "07693de9a2f95417539c071c43c8b1324d257c5799939e1df26196a1324d44b2"
};
