let block = {
  "hash": "b471614abcde34f91e88cd0d0dc4dafba56dadc35b21d588400b554f4fd5e6cd",
  "confirmations": 35790,
  "strippedsize": 3827,
  "size": 3827,
  "weight": 15308,
  "height": 4505709,
  "version": 6422788,
  "versionHex": "00620104",
  "merkleroot": "3dc63c3385170bef778db6e2dd704a45f79d41a543146a052ba9cc2c35d3197d",
  "tx": [
    "14fce51651e2e1bb796a4586980836a2b78b7dfd06f2ea123695560cc2d58c93",
    "6332e6d687e76be557537987723f79582d44c31e31ee2df6613c477d0cf305a3",
    "f863384426a68f6e5d77efb78c75723295b4bc878f6a2332f358d7bade7e5d0b",
    "79c9a4d8fea0589d41727009454a1cf822d1518f0e6d83ec727677ea656b1c5a",
    "454c3557e522b66d1edfc9163a5bad6f88d670f5baf18f0ebadd2ca50b714800",
    "9d0f1522376f926581025505d57489bbc669118c23887731c658b34be5d61607",
    "b45ff4f3676e6dbd9a31bb1e446164c407703139b71b744bb0f1ffc7e6f5f527",
    "2d6564ac4eb3dd1e02cf62b9a492aebc31f85e7f1c5f38cf11b6937eac3e9fc0",
    "f160b490b37bb10e26dbc459c2656b50f2972d3cb454dbc55ffef4929b73ca58",
    "c1616aaa0a1796a3626bf0df8fa765923602c71b9652365cbbe3702507a41ba0"
  ],
  "time": 1670564254,
  "mediantime": 1670564055,
  "nonce": 0,
  "bits": "1a0226f0",
  "difficulty": 7795624.294951786,
  "chainwork": "000000000000000000000000000000000000000000000927f4e6deb7a30ad7d4",
  "auxpow": {
    "tx": {
      "hex": "01000000010000000000000000000000000000000000000000000000000000000000000000ffffffff5603c15d2404002f42696e616e63652f343034fabe6d6db471614abcde34f91e88cd0d0dc4dafba56dadc35b21d588400b554f4fd5e6cd01000000000000000fcdbccc111d711be509b3457ace2550040092b270050000ffffffff02ead8b14a000000001976a9142e9df0aa5f77ef3e46cbf24d3f6d32288d5ca09388ac0000000000000000266a24aa21a9edd35f60af39d040d0248a114e08000a8f930d454316b62147c1d86d6397c53c0f00000000",
      "txid": "741a4e8dd4f264104938cebe6b5c5f71e208048f629550088e9b58838659c276",
      "hash": "741a4e8dd4f264104938cebe6b5c5f71e208048f629550088e9b58838659c276",
      "size": 218,
      "vsize": 218,
      "version": 1,
      "locktime": 0,
      "vin": [
        {
          "coinbase": "03c15d2404002f42696e616e63652f343034fabe6d6db471614abcde34f91e88cd0d0dc4dafba56dadc35b21d588400b554f4fd5e6cd01000000000000000fcdbccc111d711be509b3457ace2550040092b270050000",
          "sequence": 4294967295
        }
      ],
      "vout": [
        {
          "value": 12.53169386,
          "n": 0,
          "scriptPubKey": {
            "asm": "OP_DUP OP_HASH160 2e9df0aa5f77ef3e46cbf24d3f6d32288d5ca093 OP_EQUALVERIFY OP_CHECKSIG",
            "hex": "76a9142e9df0aa5f77ef3e46cbf24d3f6d32288d5ca09388ac",
            "reqSigs": 1,
            "type": "pubkeyhash",
            "addresses": [
              "D9PapxEecFFHNrmLgauYDA9sa46DRCMrYn"
            ]
          }
        },
        {
          "value": 0,
          "n": 1,
          "scriptPubKey": {
            "asm": "OP_RETURN aa21a9edd35f60af39d040d0248a114e08000a8f930d454316b62147c1d86d6397c53c0f",
            "hex": "6a24aa21a9edd35f60af39d040d0248a114e08000a8f930d454316b62147c1d86d6397c53c0f",
            "type": "nulldata"
          }
        }
      ],
      "blockhash": "a22277b33df82b75f55c416d73d5b0f3a006290639277f10aeb9d1164a2dceda"
    },
    "index": 0,
    "chainindex": 0,
    "merklebranch": [
      "819f248b2b5a0382e45340beae93c51967bc9e6f78d67848eb355f7811e67738",
      "04d1a61708a7179ca16d2b29c1f5e231dac83d1b9fce47563ff12e5a3d63bd41",
      "e97896b1404f48e11d0baff4ba48550e56c2bdbbbef198415c4280d613527f7f",
      "8d110967506a39c244b34022beaca163875f524a2c3550c74d2f47049cab319c",
      "7247eb8a9b426a14a00c65aaae3d0b22ded7f5ce3d520ef4b14341a08c41e7aa",
      "c5284a07a5e3df55004fdf36c98ed4c79b57bc419ab871d3f8330d622c609535",
      "88fb047960f9cb9bc8cc573bd5547d150976d0c57e73db1e527b74339df10e91",
      "576fc7490f40042168a1999ed90b5647a53a5d2b3fb117b37fcd4e8922859780"
    ],
    "chainmerklebranch": [],
    "parentblock": "000000202ae20ec46ffef4cc4dcdc291a9047180f401ac2bc276d7d45767d7a50aefc31ea94c8c92f60957370ad5c903fc002c925b46f1335f4543b4cd57e0930784c29bbcc99263d8d3001a04352202"
  },
  "previousblockhash": "550393336f0a33a1678ecf15c87877848bed03b8c23f18b530fb03b30813440f",
  "nextblockhash": "af8871f904198bfab379f34e9e8d58c4b3852b85c51fd2617b2d28713f386c66"
};