let block = {
  "hash": "550393336f0a33a1678ecf15c87877848bed03b8c23f18b530fb03b30813440f",
  "confirmations": 35790,
  "strippedsize": 1162,
  "size": 1162,
  "weight": 4648,
  "height": 4505708,
  "version": 6422788,
  "versionHex": "00620104",
  "merkleroot": "128ca89e143b6926f974d8bf0ccf7b504bb1694f820eca4d3a39201f33947f94",
  "tx": [
    "29734889e94a2d3826b3d6fb3ac317ba3545ccf7489e23f010387ca0613f515a",
    "3f7eef15a2eec741d6d73f764842ea2736abefa4d9889f0cc83186e384764f1a"
  ],
  "time": 1670564212,
  "mediantime": 1670564051,
  "nonce": 0,
  "bits": "1a025906",
  "difficulty": 7145980.492649257,
  "chainwork": "000000000000000000000000000000000000000000000927f46fea986369a25d",
  "auxpow": {
    "tx": {
      "hex": "01000000010000000000000000000000000000000000000000000000000000000000000000ffffffff5103c15d24082f5669614254432f2cfabe6d6d87c781d3c3f1eab9192ebf9a2e8a4000f90b3a35cd9491d408add015f8e7503210000000000000001249d0836b1228eaed2fcb9c8f8e811900000000000000ffffffff025b708d4a000000001976a914e16c28146ed4869c190b3f0bdc18d80d45f9213488ac0000000000000000266a24aa21a9ed7fd2b35d3ec3511a292fc57d8d5c774ee1c8cb89067d597f01b6f3c9229823db00000000",
      "txid": "7f12675dc632639636496b80337e3ce89505a37caedcd8f5ddf24d1826815498",
      "hash": "7f12675dc632639636496b80337e3ce89505a37caedcd8f5ddf24d1826815498",
      "size": 213,
      "vsize": 213,
      "version": 1,
      "locktime": 0,
      "vin": [
        {
          "coinbase": "03c15d24082f5669614254432f2cfabe6d6d87c781d3c3f1eab9192ebf9a2e8a4000f90b3a35cd9491d408add015f8e7503210000000000000001249d0836b1228eaed2fcb9c8f8e811900000000000000",
          "sequence": 4294967295
        }
      ],
      "vout": [
        {
          "value": 12.50783323,
          "n": 0,
          "scriptPubKey": {
            "asm": "OP_DUP OP_HASH160 e16c28146ed4869c190b3f0bdc18d80d45f92134 OP_EQUALVERIFY OP_CHECKSIG",
            "hex": "76a914e16c28146ed4869c190b3f0bdc18d80d45f9213488ac",
            "reqSigs": 1,
            "type": "pubkeyhash",
            "addresses": [
              "DRh29GcLKUE9shKjUYtQeqQMCdw3URtL96"
            ]
          }
        },
        {
          "value": 0,
          "n": 1,
          "scriptPubKey": {
            "asm": "OP_RETURN aa21a9ed7fd2b35d3ec3511a292fc57d8d5c774ee1c8cb89067d597f01b6f3c9229823db",
            "hex": "6a24aa21a9ed7fd2b35d3ec3511a292fc57d8d5c774ee1c8cb89067d597f01b6f3c9229823db",
            "type": "nulldata"
          }
        }
      ],
      "blockhash": "80fc2c59b14d7aa5ad08f8f75b3453f071a360d7c2afd54197f443cff11307bb"
    },
    "index": 0,
    "chainindex": 8,
    "merklebranch": [
      "819f248b2b5a0382e45340beae93c51967bc9e6f78d67848eb355f7811e67738",
      "743c3be1001a5242c583358cd32b0d4d0e0efb569e94436e045f5113d476de26",
      "cbb93bb7027fa1a210e3500ba0a26c408e4549a167f98d41c7d7c3ac1fc778bd",
      "ec7ecf7876ffdcf851da368c98a5a22b60e235962e78cd97fa9d87e1f1c910fd",
      "29c5edaa00aab487a352a41a5e911bb8b723ca5a9b4d5093393d37078508f889",
      "b5eaa8c2b7f0ce3a25e914515c240b8c45a8fee09e587793545945fe15e4c99a",
      "e9d40a22813e16cbe73aa17d7556a9819d10ef7812ca5b8041913bcb53c35528"
    ],
    "chainmerklebranch": [
      "0000000000000000000000000000000000000000000000000000000000000000",
      "f98c4e9736d8eb8bb46299798906695c755369a3df99a93ffdded1713f1cf6e2",
      "6ca7698cb7f2739d9965b76e2567f6b0bb779f1b6deb095f4c200036e8bc06a4",
      "c77d206e2f3cc38e18b85aaa89a8f142a9bf0f4106925d39708f91083e7d8594"
    ],
    "parentblock": "000000202ae20ec46ffef4cc4dcdc291a9047180f401ac2bc276d7d45767d7a50aefc31e1af08ee63bda73ec3aabf5d3ce9d53ce41370e81059a0065fee366798459e1548ec99263d8d3001a22740440"
  },
  "previousblockhash": "8aeed8122f97284e4f924aa1613423cb0f2f20d89936a40726824a6397713776",
  "nextblockhash": "b471614abcde34f91e88cd0d0dc4dafba56dadc35b21d588400b554f4fd5e6cd"
};