let block = {
  "hash": "8aeed8122f97284e4f924aa1613423cb0f2f20d89936a40726824a6397713776",
  "confirmations": 35791,
  "strippedsize": 4512,
  "size": 4512,
  "weight": 18048,
  "height": 4505707,
  "version": 6422788,
  "versionHex": "00620104",
  "merkleroot": "4198b69bbaf8450a7eec48d93b57daaf54c2387a0ca07028b42c23c6e1a74316",
  "tx": [
    "f8c7ea4084923229d23cde05e5d915310d486fbee5eee3396672869d0da17a41",
    "5960e1cab42a5a91cc743eb3f13059a2f5a02536cdaff065a6b8b694cdec32bc",
    "61bae9a7be3180bf716c0dff9d255f215a80b24f1bc8b5bbddebe30cb6e68fec",
    "1be1970129454c0b57ae61b6cec903b507a49122ef16c5a62213d17db6526ab6",
    "c800194054450f5b0c70216da21174637ab8c1b42d2c42ec57ff8e5a28e25b72",
    "6b6c706abbf1dee2bb8447e1750b2e5fe4ce9047d9e54679afb89d986939662b",
    "bc945e6b79192feac2caa5086c42dfd38bf07c62ea0909a65ac3040bc8537227",
    "afa6c6bdc25d3f5f284b1e59b3b93c2718175ed5107d030e58a72181ac9091ca",
    "127bc7491cdfdecefd7f212a4aeb7ce94a411d3aa1d0f1e524bd20e35a0a49c0",
    "b5d343bcd11c68e86f723833ae95449e68d350334e00926e185316969a12c717",
    "65326aa48c713df37e6188e05e237eefdd3bf430ac83046bceb7210d89ea2b7a",
    "af5c58b3c9f2246dbe2d475df0e32ff574ec9cea17802fb79f5921f74b47f171",
    "f615ba108de74b50f7c8e3184a593dd6f48aa68d53ad73c27535e69217e7bdf2",
    "bb1d96224cc35a6ca4a143e5ce01fc49e598bf298d931786117bb753be3d4fc6",
    "e348714961f83cd6715d120f9b7891fbb7471114e5bc55d33d8fd086ec802b85"
  ],
  "time": 1670564195,
  "mediantime": 1670563906,
  "nonce": 0,
  "bits": "1a025906",
  "difficulty": 7145980.492649257,
  "chainwork": "000000000000000000000000000000000000000000000927f402e02edae1d6d6",
  "auxpow": {
    "tx": {
      "hex": "01000000010000000000000000000000000000000000000000000000000000000000000000ffffffff6103c15d241a2f5669614254432f4d696e65642062792065726963746861692f2cfabe6d6d593bc20fb53ad02213fd58124995cec70990b4ef2ea989d4184629b2fc29736810000000000000001047d05b020b68be69e010772e3300000000000000ffffffff028f9e8b4a000000001976a914e16c28146ed4869c190b3f0bdc18d80d45f9213488ac0000000000000000266a24aa21a9ed0f1976e79035254a1ba8b46d60711168adf41576ad4856592ceea3c365adf59a00000000",
      "txid": "e21585f8382613d88e291680b7dd94bdc32bf5c8b56e4ed1fe6720272fc4429f",
      "hash": "e21585f8382613d88e291680b7dd94bdc32bf5c8b56e4ed1fe6720272fc4429f",
      "size": 229,
      "vsize": 229,
      "version": 1,
      "locktime": 0,
      "vin": [
        {
          "coinbase": "03c15d241a2f5669614254432f4d696e65642062792065726963746861692f2cfabe6d6d593bc20fb53ad02213fd58124995cec70990b4ef2ea989d4184629b2fc29736810000000000000001047d05b020b68be69e010772e3300000000000000",
          "sequence": 4294967295
        }
      ],
      "vout": [
        {
          "value": 12.50664079,
          "n": 0,
          "scriptPubKey": {
            "asm": "OP_DUP OP_HASH160 e16c28146ed4869c190b3f0bdc18d80d45f92134 OP_EQUALVERIFY OP_CHECKSIG",
            "hex": "76a914e16c28146ed4869c190b3f0bdc18d80d45f9213488ac",
            "reqSigs": 1,
            "type": "pubkeyhash",
            "addresses": [
              "DRh29GcLKUE9shKjUYtQeqQMCdw3URtL96"
            ]
          }
        },
        {
          "value": 0,
          "n": 1,
          "scriptPubKey": {
            "asm": "OP_RETURN aa21a9ed0f1976e79035254a1ba8b46d60711168adf41576ad4856592ceea3c365adf59a",
            "hex": "6a24aa21a9ed0f1976e79035254a1ba8b46d60711168adf41576ad4856592ceea3c365adf59a",
            "type": "nulldata"
          }
        }
      ],
      "blockhash": "e9b5bf2a9e2574f9d641e900c9ecbea45246b35174068491fabd9ac8bb2be30d"
    },
    "index": 0,
    "chainindex": 8,
    "merklebranch": [
      "819f248b2b5a0382e45340beae93c51967bc9e6f78d67848eb355f7811e67738",
      "743c3be1001a5242c583358cd32b0d4d0e0efb569e94436e045f5113d476de26",
      "e01c5d166da6d2c486155694f3c4c0fb4a1cd84384061acf6010d87868d72254",
      "be23e593315babfa2d520e8e80b763057b0863adcf2d393159754623c4b52ac0",
      "06ee271f93ffad6a276428fc9cd2a70b067a9e2f19444c071aeba46b0ddf2bff",
      "36e5fd1d1d904fed3357c5ca915885182b552afb6487f7d660305ca941ceb519",
      "ca97c1eec411cc854a1c36616d8287594fa42625526dac1dc5ae3cde1af9babc"
    ],
    "chainmerklebranch": [
      "0000000000000000000000000000000000000000000000000000000000000000",
      "f98c4e9736d8eb8bb46299798906695c755369a3df99a93ffdded1713f1cf6e2",
      "b890ede557af7dab89841479926275ee5736f044daf84459f546067bc761e2ba",
      "c77d206e2f3cc38e18b85aaa89a8f142a9bf0f4106925d39708f91083e7d8594"
    ],
    "parentblock": "000000202ae20ec46ffef4cc4dcdc291a9047180f401ac2bc276d7d45767d7a50aefc31e5c99edced8eed64b122508629f8d80a3efefe214241bd6b3edc9de45d5861ce364c99263d8d3001a7b95d44e"
  },
  "previousblockhash": "bfcacad2ed7c027c5f4fb031473e29f2d6ff85584b57f48ca82c5c3a61596308",
  "nextblockhash": "550393336f0a33a1678ecf15c87877848bed03b8c23f18b530fb03b30813440f"
};
