let transaction = {
  "accessList":[],
  "blockHash":"0x220f716126eec3093d64f5df6234f8e13b8b9f1d3a362f4dc99fbbbba72f346b",
  "blockNumber":16145146,
  "chainId":"0x1",
  "from":"0x042523db4f3effc33d2742022b2490258494f8b3",
  "gas":256694,
  "gasPrice":"12566765410",
  "hash":"0x4aa41b293d2cdc7b5c4bb7bf58e55cc61398eec774e6c09a01e072fbd133ef0a",
  "input":"0x1cff79cd000000000000000000000000a034c1f0246d728cb0f2376d5968ca53d6c8d30f0000000000000000000000000000000000000000000000000000000000000040000000000000000000000000000000000000000000000000000000000000016446446503000000000000000000000000db44a4a457c87225b5ba45f27b7828a4cc03c1120000000000000000000000006123b0049f904d730db3c36a31167d9d4121fa6b000000000000000000000000c02aaa39b223fe8d0a0e5c4f27ead9083c756cc200000000000000000000000056178a0d5f301baf6cf3e1cd53d9863437345bf90000000000000000000000000000000000000000000000069c69c40566137b8000000000000000000000000000000000000000000001023de37912e359083800000000000000000000000000000000000000000001644e44e23bb71ed3d3e4000000000000000000000000000000000000000000000000000000a471b03d76ac0000000000000000000000000000000000000000000000000000a471b03d76ac000000000000000000000000000000000000000000000000000000006392cbb6330000000000000000000000000000000000000000000000000000000000000000000000000000000000000000000000000000000000000000000000",
  "maxFeePerGas":"0x4638e6f13",
  "maxPriorityFeePerGas":"0x0",
  "nonce":149151,
  "r":"0x2e4ae8a59f9c770b62d01579467a3a08c333216fc2b2a1984f3ebae0c868ff56",
  "s":"0x1cab90a84115655e5d6495f175ff3b8e855ea7d5e5171841703f6289d34fa45c",
  "to":"0xa57bd00134b2850b2a1c55860c9e9ea100fdd6cf",
  "transactionIndex":0,
  "type":"0x2",
  "v":"0x1",
  "value":"45316"
}

let decodedInput = {
  
}