let transaction = {
  "accessList":[],
  "blockHash":"0x220f716126eec3093d64f5df6234f8e13b8b9f1d3a362f4dc99fbbbba72f346b",
  "blockNumber":16145146,
  "chainId":"0x1",
  "from":"0xf294bea88e18667d27b9dbed4e11d3c66b305c74",
  "gas":553267,
  "gasPrice":"15566765410",
  "hash":"0x67aadd90a98626111d045f8e167b4bb95032e7b19c8b8ca4e7c59f6c74276ddd",
  "input":"0x791ac94700000000000000000000000000000000000000000000fd50e58afa91328c00000000000000000000000000000000000000000000000000000018cb9b3440ab7200000000000000000000000000000000000000000000000000000000000000a0000000000000000000000000f294bea88e18667d27b9dbed4e11d3c66b305c74000000000000000000000000000000000000000000000000000000006392cbaa000000000000000000000000000000000000000000000000000000000000000200000000000000000000000066cbde213a4465b863f481f7fb375fd4cb1a8a49000000000000000000000000c02aaa39b223fe8d0a0e5c4f27ead9083c756cc2",
  "maxFeePerGas":"0x5165ecd13",
  "maxPriorityFeePerGas":"0xb2d05e00",
  "nonce":789,
  "r":"0x83be569834d527e78af3693d979a83999c157b00765189e96c6110a558c2862d",
  "s":"0x13335389b939f31d841f3824aa6d91a7bf891e9fb3df5137e515014b5d018eb8",
  "to":"0x7a250d5630b4cf539739df2c5dacb4c659f2488d",
  "transactionIndex":2,
  "type":"0x2",
  "v":"0x1",
  "value":"0"
}

let decodedInput = {

}